{"abi":[{"type":"function","name":"verifyProof","inputs":[{"name":"_proof","type":"uint256[24]","internalType":"uint256[24]"},{"name":"_pubSignals","type":"uint256[1]","internalType":"uint256[1]"}],"outputs":[{"name":"","type":"bool","internalType":"bool"}],"stateMutability":"view"}],"bytecode":{"object":"0x6080604052348015600e575f5ffd5b506113ed8061001c5f395ff3fe608060405234801561000f575f5ffd5b5060043610610029575f3560e01c8063ff7240a71461002d575b5f5ffd5b61004061003b366004611336565b610054565b604051901515815260200160405180910390f35b5f6112c9565b5f5f600184845f5f5b8215610085575092938183058581029091039350909181830290039081610063565b5050506001811115610095575f5ffd5b50505f8112156100a25783015b9392505050565b6040518160208402830181516020830192505f5b828410156100ed578185525f5160206113985f395f51905f528451830991506020850194506020840193506100bd565b6101045f5160206113985f395f51905f528361005a565b91506020850394506020840393508592505b82841115610159575f5160206113985f395f51905f528551830990505f5160206113985f395f51905f5284518309818552601f1995860195909401939150610116565b5090915250505050565b5f5160206113985f395f51905f52811061017f575f5f5260205ff35b50565b61018e61024435610163565b61019a61026435610163565b6101a661028435610163565b6101b26102a435610163565b6101be6102c435610163565b6101ca6102e435610163565b565b604080517f1e9a855a157cefde80967ab5b4b44937afc838cbdb6c50b3ae2db070868a48b581527f2c2d3e4cfbf70b6bf2166f750e5772b7c6648372ea8c5c28541acfab12fba03260208083019182527f290137fa279e7b8d6b2769d706904e39835b0560b1eeedf10870d825fae6d58b8385019081527ed672aaf81852cb88f594fa852b17192f4294fe7514365e90b9fcd18d668515606085019081527f0c3861ed8773b930fa873d49728faafdeca893ef24a99a1ddb2445a6a79a5bcd6080808701919091527f14f2ecb4933affbd442f9d4ba7846fd9d5eb09d5df5599fcd3c4c207bfc3dd9660a08701527f1bc48f8f0bea3009b9051ad4ac8c5fab88ab05db101e53ab88dd4f7556912f7060c08701527f282cfa2b0b4b8b108ffd1c908c21c35ff51e548b553ccf29c9a88d8ff9bec19460e08701527f11edeb04570925f956bc56a5d671e355f2f14273836259842c008bcd3edb77946101008701527f061954a57cb178233068640e0ee3382ae1c04596d0e987941c3fc389c5a81d8b6101208701527f090a1d974713725befeccb5544333e16522f3485dd2529a69ade76c1cebf45526101408701527f1aa70c6b822a4fa5daebcb3b4730229e5cef988fe9a58dc66f02f0bcb6bb24a66101608701527f27fbcf2f0369c042069d1d5589296a0108d41b40fe8ce151bcf51cc0bba83c856101808701527f1877ee4fab2d686be630124533919eead73fccc4e40e74b9b2738b688ab209a06101a08701527f18c03cd7bf0cab72668f60490c6443affac1e62bb74c4aadb73ba0560bdee4036101c08701527f1f7a9303427adb10c36305f52351584eca897b41f71555c9cc297fdda1f63c456101e087015288356102008701526004356102208701526024356102408701526044356102608701526064356102808701526084356102a087015260a4356102c08701526102e086205f5160206113985f395f51905f529081900689860181815295909520819006978901978852848752965190945260c43590915260e435905290822083900680855290929091908280096102c08501528181526101043560208201526020610104013560408201526101443560608201526020610144013560808201526101843560a08201526020610184013560c08201525f5160206113985f395f51905f5260e082200691508160608501528181526102443560208201526102643560408201526102843560608201526102a43560808201526102c43560a08201526102e43560c08201525f5160206113985f395f51905f5260e08220068060c08601525f5160206113985f395f51905f5283850960a08601525f5160206113985f395f51905f5283840992505f5160206113985f395f51905f5283840992505f5160206113985f395f51905f5283840992505f5160206113985f395f51905f5283840992505f5160206113985f395f51905f5283840992508260808601525f5160206113985f395f51905f52806001850301069250826102e0860152826103008601525f5160206113985f395f51905f5281820992508260e08601525f5160206113985f395f51905f528184099250826101008601525f5160206113985f395f51905f528184099250826101208601525f5160206113985f395f51905f52818409610140860152506101c43581526101e4356020820152610204356040820152610224356060820152608090205f5160206113985f395f51905f52900661016090930192909252505050565b60015f5160206113985f395f51905f52805f5160206113985f395f51905f52836060860151030106602009610320830152610708600261030084016100a9565b6102e0820151600191505f5160206113985f395f51905f528161032085015109610320840152505050565b5f5f5160206113985f395f51905f52805f5160206113985f395f51905f525f8601356103208601510983030106905080610180830152505050565b6101808101515f5160206113985f395f51905f526102c0830151610320840151095f5160206113985f395f51905f52806102a43560208601510961024435085f5160206113985f395f51905f526040850151820890505f5160206113985f395f51905f52806102c43560208701510961026435085f5160206113985f395f51905f526040860151820890505f5160206113985f395f51905f52604086015161028435085f5160206113985f395f51905f52815f5160206113985f395f51905f5284860909925050505f5160206113985f395f51905f526102e435820990505f5160206113985f395f51905f525f850151820990505f5160206113985f395f51905f5280835f5160206113985f395f51905f520306840892505f5160206113985f395f51905f5280825f5160206113985f395f51905f520306840892505050806101a08301525050565b6040518151815260208201516020820152825160408201526020830151606082015260408260808360066107d05a03fa9050806108f6575f5f5260205ff35b505050565b50505050565b5f60405183815284602082015285604082015260408160608360076107d05a03fa915081610931575f5f5260205ff35b825160408201526020830151606082015260408360808360066107d05a03fa91505080610960575f5f5260205ff35b5050505050565b5f60405183815284602082015285604082015260408360608360076107d05a03fa91505080610960575f5f5260205ff35b6108f6836020840151845184610967565b6101c0810160408201516040516101008101604052610a0d7f061954a57cb178233068640e0ee3382ae1c04596d0e987941c3fc389c5a81d8b7f11edeb04570925f956bc56a5d671e355f2f14273836259842c008bcd3edb77948590815260200152565b610a6f5f5160206113985f395f51905f526102643561024435097f2c2d3e4cfbf70b6bf2166f750e5772b7c6648372ea8c5c28541acfab12fba0327f1e9a855a157cefde80967ab5b4b44937afc838cbdb6c50b3ae2db070868a48b586610901565b610abd610244357ed672aaf81852cb88f594fa852b17192f4294fe7514365e90b9fcd18d6685157f290137fa279e7b8d6b2769d706904e39835b0560b1eeedf10870d825fae6d58b86610901565b610b0c610264357f14f2ecb4933affbd442f9d4ba7846fd9d5eb09d5df5599fcd3c4c207bfc3dd967f0c3861ed8773b930fa873d49728faafdeca893ef24a99a1ddb2445a6a79a5bcd86610901565b610b5b610284357f282cfa2b0b4b8b108ffd1c908c21c35ff51e548b553ccf29c9a88d8ff9bec1947f1bc48f8f0bea3009b9051ad4ac8c5fab88ab05db101e53ab88dd4f7556912f7086610901565b60a08401515f5160206113985f395f51905f52835f5160206113985f395f51905f52836102443508085f5160206113985f395f51905f52845f5160206113985f395f51905f5280600286096102643508085f5160206113985f395f51905f52855f5160206113985f395f51905f52806003870961028435080892505f5160206113985f395f51905f525f8801515f5160206113985f395f51905f52855f5160206113985f395f51905f5285870909095f5160206113985f395f51905f526102c08901516103208a01510960c43560c087015260e43560e0870152610c685f5160206113985f395f51905f526101608b01515f5160206113985f395f51905f528486080860c0880188610998565b50505f5160206113985f395f51905f52855f5160206113985f395f51905f52806102a43560208c01510961024435080891505f5160206113985f395f51905f52855f5160206113985f395f51905f52806102c43560208c01510961026435080890505f5160206113985f395f51905f526102e4355f5160206113985f395f51905f5260208a01515f8b015109099250610d665f5160206113985f395f51905f52845f5160206113985f395f51905f52848609097f1f7a9303427adb10c36305f52351584eca897b41f71555c9cc297fdda1f63c457f18c03cd7bf0cab72668f60490c6443affac1e62bb74c4aadb73ba0560bdee40360408801610967565b5050506101043560808201526101243560a0820152610d976080850151602061014401356101443560808501610901565b60808401515f5160206113985f395f51905f529080099150610dc4826101a4356101843560808501610901565b610de06102e085015160a0830151608084015160808501610967565b5f5160206113785f395f51905f5260206040830101515f5160206113785f395f51905f52030660206040830101525f5160206113785f395f51905f5260a08201515f5160206113785f395f51905f52030660a0820152610e4081846108b7565b610e4d60408201846108b7565b6108fb60808201846108b7565b6101c081015161020082019081526101e082015161022083015260c0820151610e899060243560043584610901565b60e0820151610e9e9060643560443584610901565b610100820151610eb49060a43560843584610901565b610f056101208301517f1aa70c6b822a4fa5daebcb3b4730229e5cef988fe9a58dc66f02f0bcb6bb24a67f090a1d974713725befeccb5544333e16522f3485dd2529a69ade76c1cebf455284610901565b610f566101408301517f1877ee4fab2d686be630124533919eead73fccc4e40e74b9b2738b688ab209a07f27fbcf2f0369c042069d1d5589296a0108d41b40fe8ce151bcf51cc0bba83c8584610901565b5050565b5f5160206113985f395f51905f526101a08201515f5160206113985f395f51905f5203065f5160206113985f395f51905f528060c08401516102443509820890505f5160206113985f395f51905f528060e08401516102643509820890505f5160206113985f395f51905f52806101008401516102843509820890505f5160206113985f395f51905f52806101208401516102a43509820890505f5160206113985f395f51905f52806101408401516102c43509820890505f5160206113985f395f51905f52806101608401516102e4350982089050610f5681600260016102408601610967565b5f604051610240810160405261018081016101c0820161020083016110736101c48481358152602091820135910152565b6102043582526102243560208301526110926101608701518386610998565b61109c83856108b7565b5f5160206113785f395f51905f5260208501515f5160206113785f395f51905f52030660208501527f26186a2d65ee4d2f9c9a5b91f86597d35f192cd120caf7e935d8443d1938e23d60408501527f30441fd1b5d3370482c42152a8899027716989a6996c2535bc9f7fee8aaef79e60608501527f1970ea81dd6992adfbc571effb03503adbbb6a857f578403c6c40e22d65b3c0260808501527f054793348f12c0cf5622c340573cb277586319de359ab9389778f689786b1e4860a085015261116e60608701518460c08701610998565b5f5160206113985f395f51905f5260608701516101608801510992505f5160206113985f395f51905f527f09c532c6306b93d29678200d47c0b2a99c18d51b838eeb1d3eed4c533bb512d0840992506111c8838383610998565b6111d58160c086016108b7565b5050506111e9610200840160c083016108b7565b610260830180515f5160206113785f395f51905f52908103069052611215610240840160c083016108b7565b7f198e9393920d483a7260bfb731fb5d25f1aa493335a9e71297e485b7aef312c26101008201527f1800deef121f1e76426a00665e5c4479674322d4f75edadd46debd5cd992f6ed6101208201527f090689d0585ff075ec9e99ad690c3395bc4b313370b38ef355acdadcd122975b6101408201527f12c85ea5db8c6deb4aab71808dcb408fe3d1e7690c43d37b4ce6cc0166fa7daa6101608201526020816101808360086107d05a03fa90511692915050565b60405161034081016040526112dc610182565b6112e683826101cc565b6112ef816106c8565b6112f98382610733565b6113028161076e565b61130b816109a9565b61131481610e5a565b61131d81610f5a565b61132681611042565b6103408203604052805f5260205ff35b5f5f6103208385031215611348575f5ffd5b610300830184811115611359575f5ffd5b839250846103208501111561136c575f5ffd5b80915050925092905056fe30644e72e131a029b85045b68181585d97816a916871ca8d3c208c16d87cfd4730644e72e131a029b85045b68181585d2833e84879b9709143e1f593f0000001a2646970667358221220da66fd7ea154a98e221b60f626300ff47ee9c4a0a1007d7708a7412db541526164736f6c634300081c0033","linkReferences":{}},"methodIdentifiers":{"verifyProof(uint256[24],uint256[1])":"ff7240a7"},"id":0}