{
    "abi": [
        {
            "type": "constructor",
            "inputs": [
                {
                    "name": "plonkVerifierAddress",
                    "type": "address",
                    "internalType": "address"
                }
            ],
            "stateMutability": "nonpayable"
        },
        {
            "type": "function",
            "name": "s_plonkVerifierAddress",
            "inputs": [],
            "outputs": [
                {
                    "name": "",
                    "type": "address",
                    "internalType": "address"
                }
            ],
            "stateMutability": "view"
        },
        {
            "type": "function",
            "name": "submitProof",
            "inputs": [
                {
                    "name": "proof",
                    "type": "bytes",
                    "internalType": "bytes"
                },
                {
                    "name": "pubSignals",
                    "type": "uint256[]",
                    "internalType": "uint256[]"
                }
            ],
            "outputs": [
                {
                    "name": "",
                    "type": "bool",
                    "internalType": "bool"
                }
            ],
            "stateMutability": "nonpayable"
        },
        {
            "type": "event",
            "name": "ProofResult",
            "inputs": [
                {
                    "name": "result",
                    "type": "bool",
                    "indexed": false,
                    "internalType": "bool"
                }
            ],
            "anonymous": false
        }
    ],
    "bytecode": {
        "object": "0x6080604052348015600e575f5ffd5b50604051610422380380610422833981016040819052602b91604e565b5f80546001600160a01b0319166001600160a01b03929092169190911790556079565b5f60208284031215605d575f5ffd5b81516001600160a01b03811681146072575f5ffd5b9392505050565b61039c806100865f395ff3fe608060405234801561000f575f5ffd5b5060043610610033575f3560e01c8062c80d811461003757806344896a9a1461005f575b5f5ffd5b61004a610045366004610203565b610089565b60405190151581526020015b60405180910390f35b5f54610071906001600160a01b031681565b6040516001600160a01b039091168152602001610056565b5f8054604051631e8e1e1360e01b815282916001600160a01b031690631e8e1e13906100bb90879087906004016102c2565b602060405180830381865afa1580156100d6573d5f5f3e3d5ffd5b505050506040513d601f19601f820116820180604052508101906100fa9190610340565b90507fb6030296ed6d28f593d0c257c080ef243cd60eb419e82d45d9e530c5939151028160405161012f911515815260200190565b60405180910390a19392505050565b634e487b7160e01b5f52604160045260245ffd5b604051601f8201601f1916810167ffffffffffffffff8111828210171561017b5761017b61013e565b604052919050565b5f82601f830112610192575f5ffd5b813567ffffffffffffffff8111156101ac576101ac61013e565b8060051b6101bc60208201610152565b918252602081850181019290810190868411156101d7575f5ffd5b6020860192505b838310156101f95782358252602092830192909101906101de565b9695505050505050565b5f5f60408385031215610214575f5ffd5b823567ffffffffffffffff81111561022a575f5ffd5b8301601f8101851361023a575f5ffd5b803567ffffffffffffffff8111156102545761025461013e565b610267601f8201601f1916602001610152565b81815286602083850101111561027b575f5ffd5b816020840160208301375f60208383010152809450505050602083013567ffffffffffffffff8111156102ac575f5ffd5b6102b885828601610183565b9150509250929050565b604081525f83518060408401528060208601606085015e5f60608285010152601f19601f820116830190506060810160608483030160208501528085518083526080840191506020870193505f92505b808310156103355783518252602082019150602084019350600183019250610312565b509695505050505050565b5f60208284031215610350575f5ffd5b8151801515811461035f575f5ffd5b939250505056fea264697066735822122007d7c3673c15f1351a94d624a91ee3b98fbc593157852310c8899a9b8578250764736f6c634300081c0033",
        "linkReferences": {}
    },
    "methodIdentifiers": {
        "s_plonkVerifierAddress()": "44896a9a",
        "submitProof(bytes,uint256[])": "00c80d81"
    },
    "id": 1
}